:020000040000FA
:100000000C9463000C948B000C948B000C948B006C
:100010000C948B000C948B000C948B000C94640853
:100020000C948B000C948B000C948B000C948B0024
:100030000C948B000C948B000C948B000C948B0014
:100040000C94C0080C948B000C948B000C948B00C7
:100050000C948B000C948B000C948B000C948B00F4
:100060000C948B000C948B000000000024002700EF
:100070002A000000000023002600290000000008DC
:10008000000201000003040700000000000000005F
:10009000010204081020408001020408102001021F
:1000A0000408102000000000250028002B00040494
:1000B0000404040404040202020202020303030310
:1000C00003030200C80911241FBECFEFD8E0DEBF32
:1000D000CDBF11E0A0E0B1E0ECE9F8E102C005908D
:1000E0000D92A634B107D9F723E0A6E4B1E001C030
:1000F0001D92A830B207E1F710E0C3E6D0E004C0DB
:100100002197FE010E94460CC236D107C9F70E9412
:100110000A090C944C0C0C940000AF92BF92CF9241
:10012000DF92EF92FF920F931F93CF93DF936C01B7
:100130007B018B01040F151FEB015E01AE18BF0898
:10014000C017D10759F06991D601ED91FC9101904A
:10015000F081E02DC6010995892B79F7C501DF9162
:10016000CF911F910F91FF90EF90DF90CF90BF90B4
:10017000AF900895833081F028F4813099F0823077
:10018000A9F008958730A9F08830C9F08430B1F41F
:10019000809180008F7D03C0809180008F77809355
:1001A0008000089584B58F7784BD089584B58F7DD0
:1001B000FBCF8091B0008F778093B000089580913D
:1001C000B0008F7DF9CFCF93DF93282F30E0F90176
:1001D000E458FF4F8491F901E057FF4FD491F901A2
:1001E000E255FF4FC491CC23A1F081110E94BA00C7
:1001F000EC2FF0E0EE0FFF1FEE58FF4FA591B491EA
:10020000EC91ED2381E090E009F480E0DF91CF9163
:10021000089580E090E0FACF1F93CF93DF93282FCB
:1002200030E0F901E458FF4F8491F901E057FF4FA6
:10023000D491F901E255FF4FC491CC23A9F0162FB8
:1002400081110E94BA00EC2FF0E0EE0FFF1FEC5579
:10025000FF4FA591B4918FB7F894EC91111108C09C
:10026000D095DE23DC938FBFDF91CF911F9108954E
:10027000DE2BF8CF9091140189130BC0E2ECF0E073
:10028000E4919FEF90931401E13049F028F0E230BF
:1002900061F060E00C940C0110926E00FACF909126
:1002A0006F009D7F90936F00F4CF909170009D7FC1
:1002B0009093700091E09093B0009091B100987F7E
:1002C00094609093B1001092B300E3CFCF93DF938B
:1002D00090E0FC01E057FF4F249182559F4FFC01B5
:1002E00084918823D1F090E0880F991FFC01E85990
:1002F000FF4FA591B491FC01EC55FF4FC591D491EE
:1003000061110EC09FB7F8948C91E22FE0958E2377
:100310008C932881E223E8839FBFDF91CF910895DA
:100320008FB7F894EC91E22BEC938FBFF6CF4F92FE
:100330005F926F927F928F929F92AF92BF92CF9275
:10034000DF92EF92FF920F931F93CF93DF9300D032
:1003500000D01F92CDB7DEB78C012A013B018091FE
:1003600014018730C9F08F3F09F47FC00F900F90C0
:100370000F900F900F90DF91CF911F910F91FF90F1
:10038000EF90DF90CF90BF90AF909F908F907F9035
:100390006F905F904F900895E2ECF0E084918D8330
:1003A00087FDE4CF61E087E00E9466018D818823AC
:1003B00021F09D81923009F05CC14801B12CA12C43
:1003C00060E072E18AE790E0A50198010E948A0A44
:1003D00029833A834B835C8369017A0181E0C81ADF
:1003E000D108E108F1089FEFC916D104E104F10436
:1003F00009F00CF413C160E472E48FE090E0A50111
:1004000098010E948A0A69017A0181E0C81AD1081C
:10041000E108F1089D81923009F098C08FEFC8166D
:10042000D104E104F10409F00CF4DDC160E970EDE0
:1004300083E090E0A50198010E948A0A69017A018F
:1004400091E0C91AD108E108F1088FEFC816D1046C
:10045000E104F10411F00CF0A3C183E09091B1002C
:10046000987F892B8093B100E1C087E080931401CD
:10047000E2ECF0E094919D839F3F09F477CF9130B7
:1004800029F158F0923009F43FC08D8187FD6ECF7D
:1004900061E087E00E9466018CCF14BC15BC84B576
:1004A000826084BD85B5816085BDE5EBF0E0E491B7
:1004B000F0E0EE0FFF1FEC55FF4F85919491E7E9B7
:1004C000F0E0E491E093E3021D826CCF1092800093
:1004D00010928100809181008860809381008091DA
:1004E0008100816080938100E5EBF0E0E491F0E031
:1004F000EE0FFF1FEC55FF4F85919491E7E9F0E077
:10050000E491E093E2024ECF1092B0001092B1005D
:100510008091B00082608093B0008091B1008160D2
:100520008093B100E5EBF0E0E491F0E0EE0FFF1F07
:10053000EC55FF4F859194919093E1028093E002F6
:10054000E7E9F0E0E491E093DF022CCF9FEFC916DA
:10055000D104E104F10409F00CF489C068E478EEF8
:1005600081E090E0A50198010E948A0A69017A0160
:1005700081E0C81AD108E108F1089D81992309F4A6
:1005800028C19FEFC916D104E104F10409F00CF46D
:100590001EC162E17AE780E090E0A50194010E942B
:1005A0008A0A69017A0181E0C81AD108E108F108D4
:1005B0009D81992309F4EBC08FEFC816D104E104A3
:1005C000F10411F008F0BFC086E048CF64E274EF98
:1005D00080E090E0A50194010E948A0A69017A01F5
:1005E00081E0C81AD108E108F10885E09FEFC9163B
:1005F000D104E104F10409F008F430CF62E17AE7B4
:1006000080E090E0A50194010E948A0A69017A01C4
:1006100091E0C91AD108E108F108CECF81E09D81AF
:1006200091111CCF95B5987F892B85BD2FEF3FEF9A
:10063000A901411451046104710409F043C09D8172
:10064000913009F45EC0923009F46DC091118ECEE4
:10065000C7BC2093EC023093ED024093EE0250931E
:10066000EF0280916E00826080936E007FCE82E008
:10067000D6CFB12CA12C60E072E18AE790E0A50111
:1006800098010E948A0A69017A0181E0C81AD1089A
:10069000E108F108C114D10491E0E906F10404F580
:1006A00091E08D81813011F680918100887F892BC6
:1006B000809381002FEF3FEFA901411451046104A1
:1006C0007104F9F0D801AA0FBB1FA30192010E9487
:1006D000A90A28EE33E040E050E00E94BC0AAFCF08
:1006E00068E478EE81E090E0A50198010E948A0A12
:1006F00069017A0181E0C81AD108E108F10893E0A4
:10070000D0CFD0928900C09288002093E802309325
:10071000E9024093EA025093EB0280916F008260FD
:1007200080936F0023CEC092B3002093E4023093F5
:10073000E5024093E6025093E702809170008260E8
:100740008093700013CEC980DA80EB80FC809AE041
:10075000F594E794D794C7949A95D1F791E0C91A84
:10076000D108E108F10887E079CEC980DA80EB8012
:10077000FC808AE0F594E794D794C7948A95D1F7E2
:1007800091E0C91AD108E108F10885E04BCF8FEF5D
:10079000C816D104E104F10409F038F784E042CF2F
:1007A00068E478EE81E090E0A50198010E948A0A51
:1007B00069017A0191E0C91AD108E108F1088FEFC7
:1007C000C816D104E104F10411F00CF0FFCE84E06E
:1007D00045CE8FEFC816D104E104F10411F00CF0FE
:1007E000D8CE83E01FCF82E039CE3FB7F894809116
:1007F0000F0290911002A0911102B091120226B541
:10080000A89B05C02F3F19F00196A11DB11D3FBF48
:10081000BA2FA92F982F8827BC01CD01620F711D17
:10082000811D911D42E0660F771F881F991F4A9511
:10083000D1F708958F929F92AF92BF92CF92DF929D
:10084000EF92FF926B017C010E94F5034B015C016A
:10085000C114D104E104F104B9F00E94F503681950
:1008600079098A099B09683E73408105910580F3E7
:1008700021E0C21AD108E108F10888EE880E83E071
:10088000981EA11CB11CE4CFFF90EF90DF90CF9099
:10089000BF90AF909F908F900895089590E080E072
:1008A0000895EF92FF920F931F93CF93DF9360E031
:1008B00082E00E940C0160E083E00E940C0160E095
:1008C00084E00E940C0160E085E00E940C0187E159
:1008D000E82E82E0F82E10E000E080911201909165
:1008E0001301081719070CF04AC0F701C191D19103
:1008F0007F0140E050E0BA0188EC90E0C230D105C1
:10090000C1F040E050E0BA018CE291E0C330D10583
:1009100081F040E050E0BA0180E991E0C430D105B7
:1009200041F0C530D10581F440E050E0BA0184EFD8
:1009300091E00E94970168EC70E080E090E00E94F6
:100940001A0487E00E943A0161E08C2F0E940C019A
:100950006091100170911101072E000C880B990B0A
:100960000E941A0460E08C2F0E940C0168EC70E079
:1009700080E090E00E941A040F5F1F4FAECFDF911E
:10098000CF911F910F91FF90EF9008958F929F92BA
:10099000AF92BF920F931F93CF93DF93CDB7DEB784
:1009A000A1970FB6F894DEBF0FBECDBF19A242309B
:1009B00008F44AE08E010F5D1F4F842E912CB12C5C
:1009C000A12CA50194010E94BC0AE62FB901CA011D
:1009D000EA3044F5E05DD801EE938D01232B242B02
:1009E000252B79F790E080E0109769F0FD010190E8
:1009F0000020E9F73197AF014A1B5B0BBD0180EF87
:100A000092E00E948D00A1960FB6F894DEBF0FBE53
:100A1000CDBFDF91CF911F910F91BF90AF909F906D
:100A20008F900895E95CD7CFCF93DF93EC0160E01E
:100A30008E810E940C0161E08E810E940C0160E0B9
:100A40008E810E940C018BE891E00197F1F7DF9114
:100A5000CF910895CF92DF92EF92FF920F931F9361
:100A6000CF93DF936C017C0187E0E80EF11CD0E0AE
:100A7000C0E0062F10E0B8010C2E02C075956795F6
:100A80000A94E2F76170F70181917F010E940C01E5
:100A90002196C430D10579F7C601DF91CF911F911E
:100AA0000F91FF90EF90DF90CF900C941405CF92B0
:100AB000DF92EF92FF920F931F93CF93DF93EC019E
:100AC000F62E642F8C810E940C018D818F3F19F0CE
:100AD00060E00E940C010F2D10E08F8584FF25C07F
:100AE0006E0187E0C80ED11CF12CE12CB8010E2C50
:100AF00002C0759567950A94E2F76170F6018191DD
:100B00006F010E940C01FFEFEF1AFF0A88E0E81660
:100B1000F10461F7CE01DF91CF911F910F91FF900A
:100B2000EF90DF90CF900C941405B80184E0759598
:100B300067958A95E1F7CE010E942A056F2DCE01B7
:100B4000DF91CF911F910F91FF90EF90DF90CF90A9
:100B50000C942A0540E0682F80EF92E00C94570532
:100B6000CF93DF93823029F49091FF0298609093A5
:100B7000FF02809303031092040380E48093050333
:100B800080E18093060380E58093070361E0809114
:100B9000F4020E9466018091F5028F3F19F061E036
:100BA0000E94660161E08091F6020E946601C0EF3A
:100BB000D2E09E01205F32408091FF0284FD0BC095
:100BC00084E090E021962817390744F461E08E8193
:100BD0000E946601EECF88E090E0F4CF8BE39DE0C9
:100BE0000197F1F760E08091F4020E940C0160E04F
:100BF0008091F6020E940C018091F5028F3F19F05E
:100C000060E00E940C018091FF0284FD39C063E026
:100C100080EF92E00E942A05CBE4D6E4CE01019752
:100C2000F1F763E080EF92E00E942A052197F1F747
:100C300063E080EF92E00E942A0583E592E001974D
:100C4000F1F762E080EF92E00E942A058091FF02B6
:100C500080620E94AA0584E0809300038CE00E94D9
:100C6000AA0581E00E94AA058BE39FE10197F1F7B5
:100C700082E08093010386E0DF91CF910C94AA0576
:100C800080620E94AA058BE496E40197F1F78091B7
:100C9000FF0280620E94AA0583E592E00197F1F7C6
:100CA0008091FF0280620E94AA05D0CF4F925F928E
:100CB0006F927F92AF92BF92CF92DF92EF92FF92AC
:100CC0000F931F93CF93DF9361E082E00E940C01AA
:100CD00061E083E00E940C0161E084E00E940C016D
:100CE00061E085E00E940C016AEF70E080E090E036
:100CF0000E941A0460E082E00E940C0160E083E040
:100D00000E940C0160E084E00E940C0160E085E03C
:100D10000E940C016AEF70E080E090E00E941A04EB
:100D2000C0E0D1E009E111E080E1E82E81E0F82E99
:100D30002E010D2E000C6608770898EEA92E93E080
:100D4000B92EC990D990B301A201F8018191919176
:100D50008F010E949701C501B6010E941E0C072E4B
:100D6000000C880B990B0E94250B26E636E646EA16
:100D70005FE30E94890B0E94ED0A072E000C880B8E
:100D8000990B0E941A0487E00E943A01EC16FD06B6
:100D9000C1F681E090E0909313018093120184EFFB
:100DA00091E09093110180931001E0910303E230F0
:100DB000F0F4E150F0E0E051FD4F848980680E943A
:100DC000AA0549E050E065E371E080EF92E0DF9131
:100DD000CF911F910F91FF90EF90DF90CF90BF9038
:100DE000AF907F906F905F904F900C948D00E1E0FA
:100DF000E1CF41E00E94570581E090E008954F92D5
:100E00005F926F927F928F929F92AF92BF92CF929A
:100E1000DF92EF92FF920F931F93CF93DF9306E43D
:100E200011E0C7E1D2E0D12CC12C35E0432E512C8A
:100E300044E0642E712C53E0852E912C62E0A62EA6
:100E4000B12C8091120190911301C816D9060CF4AF
:100E50006AC001969093130180931201E1E08091A2
:100E600003038111E0E0E195F0E0E051FD4F84895A
:100E700080680E94AA0545E050E06FE371E080EFD2
:100E800092E00E948D00E1E0809103038111E0E097
:100E9000E195F0E0E051FD4F84898A5F80680E940F
:100EA000AA05C0901201D0901301C601019690933B
:100EB0001301809312010D2C000CEE08FF084AE08C
:100EC000C701B601F7FE0EC041E06DE280EF92E08F
:100ED0000E94570566277727CB016C197D098E097B
:100EE0009F094AE00E94C60482E390E090931101BA
:100EF0008093100168EC70E080E090E0DF91CF918A
:100F00001F910F91FF90EF90DF90CF90BF90AF9027
:100F10009F908F907F906F905F904F900C941A04E9
:100F2000EF2809F0C7C081E10E94E300892B09F096
:100F3000C8C061E085E00E940C0140E050E0BA01C9
:100F400084EF91E00E9497016CE271E080E090E014
:100F50000E941A0487E00E943A01F80151824082FF
:100F600068EC70E080E090E00E941A04888199812A
:100F7000059791F0DF91CF911F910F91FF90EF9026
:100F8000DF90CF90BF90AF909F908F907F906F90A9
:100F90005F904F900C94560660E085E00E940C0133
:100FA000EE24E394F12C80E10E94E300892B41F5CB
:100FB00061E084E00E940C0140E050E0BA0180E969
:100FC00091E00E9497016CE271E080E090E00E9465
:100FD0001A0487E00E943A01F8017182608268EC8D
:100FE00070E080E090E00E941A0488819981049763
:100FF00009F660E084E00E940C01EE24E394F12CF9
:101000008FE00E94E300892B49F561E083E00E94B4
:101010000C0140E050E0BA018CE291E00E9497019F
:101020006CE271E080E090E00E941A0487E00E9488
:101030003A01F8019182808268EC70E080E090E0F3
:101040000E941A0488819981039709F093CF60E088
:1010500083E00E940C01EE24E394F12C8EE00E94C8
:10106000E300892B09F05CCF61E082E00E940C0173
:1010700040E050E0BA0188EC90E00E9497016CE2F9
:1010800071E080E090E00E941A0487E00E943A013B
:10109000F801B182A08268EC70E080E090E00E94EC
:1010A0001A0488819981029709F064CF60E082E098
:1010B0000E940C01FFEFCF1ADF0A0E5F1F4F22962E
:1010C000C0CEF12CE12C6FCF1F920F920FB60F9272
:1010D00011242F933F934F935F936F937F938F933D
:1010E0009F93AF93BF93EF93FF938091E40290910E
:1010F000E502A091E602B091E702892B8A2B8B2BA7
:10110000D1F19091DF02E091E002F091E102808163
:10111000892780838091E4029091E502A091E60204
:10112000B091E702181619061A061B069CF4809166
:10113000E4029091E502A091E602B091E7020197E6
:10114000A109B1098093E4029093E502A093E6021D
:10115000B093E702FF91EF91BF91AF919F918F9173
:101160007F916F915F914F913F912F910F900FBEA3
:101170000F901F901895809114010E943A01EACFB8
:101180001F920F920FB60F9211242F933F938F93BC
:101190009F93AF93BF938091130290911402A091FB
:1011A0001502B091160230910E0223E0230F2D3765
:1011B00058F50196A11DB11D20930E0280931302D4
:1011C00090931402A0931502B093160280910F021F
:1011D00090911002A0911102B09112020196A11DEE
:1011E000B11D80930F0290931002A0931102B0934F
:1011F0001202BF91AF919F918F913F912F910F90CC
:101200000FBE0F901F90189526E8230F0296A11D80
:10121000B11DD2CF789484B5826084BD84B58160DD
:1012200084BD85B5826085BD85B5816085BD8091B1
:101230006E00816080936E00109281008091810029
:101240008260809381008091810081608093810021
:10125000809180008160809380008091B1008460E3
:101260008093B1008091B00081608093B000809144
:101270007A00846080937A0080917A008260809303
:101280007A0080917A00816080937A0080917A0060
:10129000806880937A001092C10082E00E94B005BD
:1012A00060E081E10E94660160E080E10E946601E9
:1012B00060E08FE00E94660160E08EE00E946601BF
:1012C00061E082E00E94660161E083E00E946601C5
:1012D00061E084E00E94660161E085E00E946601B1
:1012E00060E082E00E940C0160E083E00E940C015B
:1012F00060E084E00E940C0160E085E00E940C0147
:101300008FEDE82E82E0F82E94E0892E912CA12C0E
:10131000B12C00E010E0809112019091130101972F
:1013200039F52FB7F89460911302709114028091EF
:101330001502909116022FBF611571058105910567
:1013400011F00E94810AC7E1D2E00E94320AA50191
:1013500094010E948A0A6E5F7F4F8F4F9F4F69935F
:101360007993EC16FD0689F70E9451040E94FF064E
:101370008091120190911301019721F00E94510474
:101380000E94FF060115110531F20E940000C3CF33
:10139000E0EFF2E0138212828DE291E0918380838C
:1013A0008DE084838FEF85838CE086838BE0878359
:1013B0008AE0808789E0818788E0828713861486A7
:1013C00015861686178681E00C94B0058F929F9241
:1013D000AF92BF92CF92DF92EF92FF92CF93DF93C3
:1013E000EC01688179818A819B8161157105810594
:1013F000910521F464E279ED8BE597E02DE133EF7F
:1014000041E050E00E948A0A49015A019B01AC0167
:10141000A7EAB1E40E94A90A6B017C01ACEEB4EF2B
:10142000A50194010E94B70AC60ED71EE81EF91E38
:10143000F7FE06C081E0C81AD108E10880E8F80A82
:10144000C882D982EA82FB82C701B6019F77DF9109
:10145000CF91FF90EF90DF90CF90BF90AF909F9093
:101460008F9008958F929F92AF92BF92CF92DF920A
:10147000EF92FF9260911501709116018091170112
:1014800090911801611571058105910521F464E2BF
:1014900079ED8BE597E02DE133EF41E050E00E94DC
:1014A0008A0A49015A019B01AC01A7EAB1E40E94F2
:1014B000A90A6B017C01ACEEB4EFA50194010E9476
:1014C000B70AC60ED71EE81EF91EF7FE06C081E059
:1014D000C81AD108E10880E8F80AC0921501D09234
:1014E0001601E0921701F0921801C701B6019F772B
:1014F000FF90EF90DF90CF90BF90AF909F908F9034
:1015000008956093150170931601809317019093CD
:1015100018010895052E97FB1EF400940E94A10A5D
:1015200057FD07D00E94BC0A07FC03D04EF40C9470
:10153000A10A50954095309521953F4F4F4F5F4FF1
:10154000089590958095709561957F4F8F4F9F4F2F
:1015500008950E94DE0AA59F900DB49F900DA49F50
:10156000800D911D11240895B7FF0C94A90A0E94C3
:10157000A90A821B930B0895A1E21A2EAA1BBB1B7A
:10158000FD010DC0AA1FBB1FEE1FFF1FA217B3074F
:10159000E407F50720F0A21BB30BE40BF50B661F65
:1015A000771F881F991F1A9469F760957095809529
:1015B00090959B01AC01BD01CF010895A29FB001A0
:1015C000B39FC001A39F700D811D1124911DB29F77
:1015D000700D811D1124911D08950E94F40A6894D4
:1015E000B1110C94830B08950E94680B88F09F57EB
:1015F00098F0B92F9927B751B0F0E1F0660F771F37
:10160000881F991F1AF0BA95C9F714C0B13091F02C
:101610000E94820BB1E008950C94820B672F782F03
:101620008827B85F39F0B93FCCF3869577956795F1
:10163000B395D9F73EF490958095709561957F4F5D
:101640008F4F9F4F0895E89409C097FB3EF4909503
:101650008095709561957F4F8F4F9F4F9923A9F08B
:10166000F92F96E9BB279395F6958795779567951A
:10167000B795F111F8CFFAF4BB0F11F460FF1BC05E
:101680006F5F7F4F8F4F9F4F16C0882311F096E9F1
:1016900011C0772321F09EE8872F762F05C066239F
:1016A00071F096E8862F70E060E02AF09A95660F58
:1016B000771F881FDAF7880F9695879597F9089511
:1016C00057FD9058440F551F59F05F3F71F04795F3
:1016D000880F97FB991F61F09F3F79F087950895D8
:1016E000121613061406551FF2CF4695F1DF08C0F7
:1016F000161617061806991FF1CF86957105610514
:1017000008940895E894BB2766277727CB0197F9BB
:1017100008950E949C0B0C940D0C0E94FF0B38F056
:101720000E94060C20F0952311F00C94F60B0C94FB
:10173000FC0B11240C94830B0E94600B70F3959F9B
:10174000C1F3950F50E0551F629FF001729FBB27B8
:10175000F00DB11D639FAA27F00DB11DAA1F649F54
:101760006627B00DA11D661F829F2227B00DA11D07
:10177000621F739FB00DA11D621F839FA00D611D8D
:10178000221F749F3327A00D611D231F849F600DAE
:10179000211D822F762F6A2F11249F5750409AF0D7
:1017A000F1F088234AF0EE0FFF1FBB1F661F771F63
:1017B000881F91505040A9F79E3F510580F00C942E
:1017C000F60B0C94830B5F3FE4F3983ED4F38695BD
:1017D00077956795B795F795E7959F5FC1F7FE2BCE
:1017E000880F911D9695879597F9089597F99F67AA
:1017F00080E870E060E008959FEF80EC0895002499
:101800000A941616170618060906089500240A9465
:1018100012161306140605060895092E0394000CEB
:1018200011F4882352F0BB0F40F4BF2B11F460FF7A
:1018300004C06F5F7F4F8F4F9F4F089597FB072E18
:1018400016F4009407D077FD09D00E94320C07FCF3
:1018500005D03EF4909581959F4F089570956195C0
:101860007F4F0895AA1BBB1B51E107C0AA1FBB1FD6
:10187000A617B70710F0A61BB70B881F991F5A951C
:10188000A9F780959095BC01CD010895EE0FFF1F3B
:101890000590F491E02D0994F894FFCF040008001E
:1018A000080004000400040004000400F401010026
:1018B000FF010000000601C400C400DC00C40000F9
:1018C00000F700060100000000F9068D004E044DEF
:1018D0000447414D45204F564552004E4956454C10
:0218E000000006
:107E0000112484B714BE81FFF0D085E080938100F7
:107E100082E08093C00088E18093C10086E0809377
:107E2000C20080E18093C4008EE0C9D0259A86E02C
:107E300020E33CEF91E0309385002093840096BBD3
:107E4000B09BFECF1D9AA8958150A9F7CC24DD24C4
:107E500088248394B5E0AB2EA1E19A2EF3E0BF2EE7
:107E6000A2D0813461F49FD0082FAFD0023811F036
:107E7000013811F484E001C083E08DD089C08234E0
:107E800011F484E103C0853419F485E0A6D080C0E4
:107E9000853579F488D0E82EFF2485D0082F10E0AE
:107EA000102F00270E291F29000F111F8ED06801E7
:107EB0006FC0863521F484E090D080E0DECF843638
:107EC00009F040C070D06FD0082F6DD080E0C81688
:107ED00080E7D80618F4F601B7BEE895C0E0D1E017
:107EE00062D089930C17E1F7F0E0CF16F0E7DF06D8
:107EF00018F0F601B7BEE89568D007B600FCFDCFD4
:107F0000A601A0E0B1E02C9130E011968C91119780
:107F100090E0982F8827822B932B1296FA010C0160
:107F200087BEE89511244E5F5F4FF1E0A038BF0790
:107F300051F7F601A7BEE89507B600FCFDCF97BE46
:107F4000E89526C08437B1F42ED02DD0F82E2BD052
:107F50003CD0F601EF2C8F010F5F1F4F84911BD097
:107F6000EA94F801C1F70894C11CD11CFA94CF0C13
:107F7000D11C0EC0853739F428D08EE10CD085E9AC
:107F80000AD08FE07ACF813511F488E018D01DD067
:107F900080E101D065CF982F8091C00085FFFCCF94
:107FA0009093C60008958091C00087FFFCCF809118
:107FB000C00084FD01C0A8958091C6000895E0E648
:107FC000F0E098E1908380830895EDDF803219F02E
:107FD00088E0F5DFFFCF84E1DECF1F93182FE3DFCA
:107FE0001150E9F7F2DF1F91089580E0E8DFEE27F6
:047FF000FF270994CA
:027FFE00040479
:00000001FF
